:1000000012C0F8C029C028C04CC026C025C024C0DA
:1000100023C022C021C020C01FC01EC01DC01CC0E4
:100020001BC01AC019C011241FBECFEDCDBF10E0F8
:10003000A0E6B0E0E0E9F6E002C005900D92A4363B
:10004000B107D9F720E0A4E6B0E001C01D92AD36BB
:10005000B207E1F763D11AC3D3CF809163008A312D
:1000600090F48031E0F48830B0F08850823078F03D
:100070009091610080916000981720F48091600059
:10008000809361000895833220F4803288F380E207
:1000900003C0833269F782E080936000E9CF80E497
:1000A000FBCF1F921FB61F9211242F933F934F93A4
:1000B0005F936F938F939F931DBC1CBC90916700BF
:1000C00080916100981708F07DC090916200809146
:1000D0006800981304C080916A0080FD07C0909169
:1000E000620080916800981709F46CC0C29A8091F0
:1000F0006700813408F456C0109267008091680050
:100100008F5F8093680080916800843058F010926F
:10011000680080916400909165000196909365005D
:100120008093640080916800823009F455C008F023
:100130004BC081114DC080916B008F7092B3977846
:1001400092BB62B390E0AC0124E0440F551F2A95A6
:10015000E1F79C01220F331F2071342F3074232BC1
:1001600033E0880F991F3A95E1F788704072842B2D
:10017000820F862B82BB9091680088B38C7F88BBEE
:10018000909848B3892F90E09C01220F331F227072
:1001900086958170822B842B88BB809166008F5F4F
:1001A00080936600809167008F5F809367009F91C6
:1001B0008F916F915F914F913F912F911F901FBE33
:1001C0001F901895C29893CF833049F08AE0B6CF3C
:1001D00080916B008295B1CF80916300AECF80910A
:1001E000630082958F7009F0A9CF909162009330DF
:1001F00069F7A4CF8F938FB78F9380916A008F5F39
:1002000080936A008F918FBF8F9118958830D1F4B9
:1002100080EF8EB98BE29DE09A95F1F700008DB9E1
:10022000B79BFECF9AE09A95F1F700C08DB9769B07
:10023000F2CF8DE08A95F1F700008FB19FEF9FB963
:10024000BD9A08958EEFE5CFC59AC79ABF9ABD9A19
:100250008FEF8FB98AE28DB980EF8EB910926C0062
:100260000895CF93C79AB79BFECF9DE09A95F1F77B
:100270000000C5989AE09A95F1F700C0C798C59A12
:10028000779906C082E080936C0080E0CF9108955A
:10029000C798880FC1E06C27862B8FB988E0B6DF3E
:1002A000BD9881E0B3DF80FF02C083E0ECCFC09354
:1002B0006C0081E0EBCFC598C79AB79BFECF8AE070
:1002C0008A95F1F700C0C59A8DE08A95F1F7000094
:1002D00010926C000895C7988FB988E097DFBD9899
:1002E00081E094DF80FF05C084E080936C0080E0B3
:1002F000089581E00895CF93DF93D82FBD9888E0CB
:1003000085DFC82FDD2341F08FEF8FB981E07EDFDD
:100310008C2FDF91CF9108951FB8F8CF87EE87BB60
:100320008BEF81BB88E188BB80E886BD16BCC3E04B
:10033000C5BF8BB780648BBF789486DF61E081E5B1
:1003400090DF8111AAC081E080936B00B4DF61E08F
:1003500081E587DF8111CAC087E080936B00ABDF46
:1003600084E091E09BBD8ABD1FBC89E08EBD88B74B
:10037000806488BF89B7806489BFF12CE12CD0E00C
:10038000C0E010E40FEF8AE0C82ED12C80916A0003
:100390008F708A3008F443C080916A008F708A3071
:1003A00028F080916A008A5F80936A0080916A00D9
:1003B0008A3558F080916900811105C080916B00E9
:1003C0008F5F80936B0010926A00809169008111A9
:1003D00026C080916B008F708A3028F080916B006E
:1003E0008A5F80936B0080916B008A3538F0809132
:1003F00063008F5F8093630010926B0080916300B5
:100400008F708A3028F0809163008A5F8093630048
:1004100080916300843210F0109263001EDE8091A0
:100420006600883161F410926600C1116BC0D11171
:100430008DC0B39904C1CF5FB49903C1DF5F8091D0
:10044000640090916500803F910508F49FCF8091F2
:100450006400909165008E159F0509F497CFE09098
:100460006400F0906500809169008111ECC090916A
:10047000610080916000891708F0E5C080916400F8
:1004800090916500B601EED0892B09F0DCC0809117
:10049000610081508093610079CF80E01CDF811181
:1004A00002C082E051CF80E016DF811103C0C0930B
:1004B0006B004CCF00DF60E081E5D3DE811102C02C
:1004C00084E042CF80E017DF80E015DF8F778093F4
:1004D0006A0080E010DF8F7780936B0081E00BDF94
:1004E0008F7380936300E7DEB8DD31CF8DE0F3DEFC
:1004F000811102C088E031CF83E8EDDE81112FCF7A
:1005000089E02BCFCF3009F045C08091690081117F
:1005100008C01092620081E080936900109361002E
:1005200015C00093620010926A0061E081E599DED7
:1005300082E0D1DE80916A00CEDE80916B00CBDE5E
:1005400080916300C8DEB7DE10926900D031D8F127
:10055000B4996FCFB49B6DCF80916900813009F061
:1005600067C080916200823009F451C080F581112A
:100570003FC080916B008F5F80936B0080916B0018
:100580008F708A3008F455CF80916B00807F809304
:100590006B004FCFC230D0F2B39BD8CF80916900AF
:1005A000813061F4809162008F5F8093620080915E
:1005B0006200843058F210926200C8CF1092650039
:1005C00010926400ABCFD23008F433CFC3CF833066
:1005D00009F02FCF80916300805F8093630080914A
:1005E0006300853208F425CF809163008F701DC0B1
:1005F00080916B00805F80936B0080916B00807FA7
:10060000813508F416CF80916B008F70C0CF809138
:1006100063008F5F80936300809163008F708A30E6
:1006200008F407CF80916300807F8093630001CF3F
:10063000109265001092640010936100FACEC0E041
:10064000FBCED0E0FCCE8091690081119FCE9091CD
:10065000610080916000981399CE1092650010920D
:10066000640094CEAA1BBB1B51E107C0AA1FBB1F8D
:10067000A617B70710F0A61BB70B881F991F5A952E
:10068000A9F780959095BC01CD010895F894FFCF0E
:040690000240FF998C
:00000001FF
